:100000000EC028C027C026C025C024C023C09FC062
:1000100021C020C01FC01EC01DC01CC01BC0112499
:100020001FBECFE5D2E0DEBFCDBF10E0A0E6B0E05E
:10003000E4EAF1E002C005900D92A236B107D9F7CB
:1000400020E0A2E6B0E001C01D92A536B207E1F7BC
:10005000A4D0A6C0D5CF80916000882311F0C39AA8
:1000600001C0C39880916000811102C0C49A01C090
:10007000C49880916300909164000196883B2BE0C6
:1000800092072CF4909364008093630004C0109254
:100090006400109263008FEC97E00197F1F700C0C5
:1000A0000000089547981E9841984098439A789484
:1000B00008954698C29A81E0809360000895BA9AA4
:1000C000BB9ABC9AC398C4982FEF80E792E0215066
:1000D00080409040E1F700C00000C39AC49A2FEF1F
:1000E00080E792E0215080409040E1F700C000009E
:1000F000C398C4982FEF80E792E021508040904051
:10010000E1F700C00000C39AC49A2FEF80E792E0A5
:10011000215080409040E1F700C00000C398C4988F
:100120002FEF80E792E0215080409040E1F700C03F
:100130000000B8DFBECF469AC298109260000895C2
:1001400010926200809160008111F5CFB2CF1F92B2
:100150000F920FB60F9211242F933F934F935F93FB
:100160006F937F938F939F93AF93BF93EF93FF937F
:1001700081E080936200E4DFFF91EF91BF91AF9146
:100180009F918F917F916F915F914F913F912F91AF
:100190000F900FBE0F901F90189591DF5CDFFECF80
:0401A000F894FFCF01
:0201A400010058
:00000001FF
