:100000000EC028C027C026C025C085C023C04EC052
:1000100021C020C01FC01EC01DC01CC01BC0112499
:100020001FBECFE5D2E0DEBFCDBF10E0A0E6B0E05E
:10003000E4E4F2E002C005900D92A436B107D9F7CE
:1000400020E0A4E6B0E001C01D92AB36B207E1F7B4
:1000500098D0F6C0D5CF47981E9840984198439ABB
:100060007894089546984398409A419A439AC29A40
:1000700081E0809363000895469A43984098419A9E
:10008000439AC29810926300089510926A0080917A
:100090006300882351F08091680090916900019677
:1000A0009093690080936800E7CFDCCF1F920F9296
:1000B0000FB60F9211242F933F934F935F936F933B
:1000C0007F938F939F93AF93BF93EF93FF9381E0C1
:1000D00080936A00DADFFF91EF91BF91AF919F911A
:1000E0008F917F916F915F914F913F912F910F90E1
:1000F0000FBE0F901F90189593B79B7F93BF93B738
:100100009D7F93BF93B7916093BF99B7926099BF5A
:1001100012BE89BD08951F920F920FB60F9211243F
:100120002F933F938F939F938091640090916500EC
:100130000196909365008093640020916400309153
:10014000650080916000909161002817390784F064
:10015000109265001092640080916800909169008F
:100160009093670080936600109269001092680077
:100170009F918F913F912F910F900FBE0F901F90E5
:100180001895BA9ABB9ABC9AC398C4982FEF80E787
:1001900092E0215080409040E1F700C00000C39AF7
:1001A000C49A2FEF80E792E0215080409040E1F721
:1001B00000C00000C398C4982FEF80E792E0215060
:1001C00080409040E1F700C00000C39AC49A2FEF2E
:1001D00080E792E0215080409040E1F700C00000AD
:1001E000C398C4982FEF80E792E021508040904060
:1001F000E1F700C000002FDF809162007DDF32DF79
:1002000080916300882311F0C39A01C0C3982091A4
:10021000640030916500809160009091610097FDCD
:100220000196959587958217930714F4C49A01C097
:10023000C4988FE19EE40197F1F700C00000E0CF81
:04024000F894FFCF60
:04024400983AFF01E4
:00000001FF
