:100000000EC028C027C026C025C07DC023C046C062
:1000100021C020C01FC01EC01DC01CC01BC0112499
:100020001FBECFE5D2E0DEBFCDBF10E0A0E6B0E05E
:10003000EAE0F2E002C005900D92A436B107D9F7CC
:1000400020E0A4E6B0E001C01D92AB36B207E1F7B4
:100050008CD0D9C0D5CF47981E9841984098439AE4
:10006000789408954698C29A81E080936300089539
:10007000469AC29810926300089510926A00809187
:100080006300882351F08091680090916900019687
:100090009093690080936800EBCFE4CF1F920F929A
:1000A0000FB60F9211242F933F934F935F936F934B
:1000B0007F938F939F93AF93BF93EF93FF9381E0D1
:1000C00080936A00DADFFF91EF91BF91AF919F912A
:1000D0008F917F916F915F914F913F912F910F90F1
:1000E0000FBE0F901F90189593B79B7F93BF93B748
:1000F0009D7F93BF93B7916093BF99B7926099BF6B
:1001000012BE89BD08951F920F920FB60F9211244F
:100110002F933F938F939F938091640090916500FC
:100120000196909365008093640020916000309167
:1001300061008217930784F01092650010926400AA
:1001400080916800909169009093670080936600A9
:1001500010926900109268009F918F913F912F91AA
:100160000F900FBE0F901F901895BA9ABB9ABC9A29
:10017000C398C4982FEF80E792E0215080409040D0
:10018000E1F700C00000C39AC49A2FEF80E792E025
:10019000215080409040E1F700C00000C398C4980F
:1001A0002FEF80E792E0215080409040E1F700C0BF
:1001B0000000C39AC49A2FEF80E792E0215080405C
:1001C0009040E1F700C00000C398C4982FEF80E78B
:1001D00092E0215080409040E1F700C000003BDFFA
:1001E0008091620081DF3EDF80E090E0209163003B
:1001F000222311F0C39A01C0C3980196883B2BE0DB
:0A020000920794F7F3CFF894FFCFB4
:04020A006400FF018C
:00000001FF
